{
  "_format": "hh-sol-artifact-1",
  "contractName": "Voting",
  "sourceName": "contracts/Voting.sol",
  "abi": [
    {
      "inputs": [
        {
          "internalType": "address",
          "name": "_joshcoin",
          "type": "address"
        }
      ],
      "stateMutability": "nonpayable",
      "type": "constructor"
    },
    {
      "inputs": [
        {
          "internalType": "string",
          "name": "_description",
          "type": "string"
        }
      ],
      "name": "createProposal",
      "outputs": [],
      "stateMutability": "nonpayable",
      "type": "function"
    },
    {
      "inputs": [
        {
          "internalType": "uint256",
          "name": "_proposalId",
          "type": "uint256"
        }
      ],
      "name": "isProposalPassed",
      "outputs": [
        {
          "internalType": "bool",
          "name": "",
          "type": "bool"
        }
      ],
      "stateMutability": "view",
      "type": "function"
    },
    {
      "inputs": [],
      "name": "joshcoin",
      "outputs": [
        {
          "internalType": "contract IERC20",
          "name": "",
          "type": "address"
        }
      ],
      "stateMutability": "view",
      "type": "function"
    },
    {
      "inputs": [],
      "name": "minimumTokensToVote",
      "outputs": [
        {
          "internalType": "uint256",
          "name": "",
          "type": "uint256"
        }
      ],
      "stateMutability": "view",
      "type": "function"
    },
    {
      "inputs": [],
      "name": "passingPercentage",
      "outputs": [
        {
          "internalType": "uint256",
          "name": "",
          "type": "uint256"
        }
      ],
      "stateMutability": "view",
      "type": "function"
    },
    {
      "inputs": [
        {
          "internalType": "uint256",
          "name": "",
          "type": "uint256"
        }
      ],
      "name": "proposals",
      "outputs": [
        {
          "internalType": "string",
          "name": "description",
          "type": "string"
        },
        {
          "internalType": "uint256",
          "name": "yesVotes",
          "type": "uint256"
        },
        {
          "internalType": "uint256",
          "name": "noVotes",
          "type": "uint256"
        },
        {
          "internalType": "uint256",
          "name": "endTime",
          "type": "uint256"
        },
        {
          "internalType": "enum Voting.ProposalStatus",
          "name": "status",
          "type": "uint8"
        }
      ],
      "stateMutability": "view",
      "type": "function"
    },
    {
      "inputs": [
        {
          "internalType": "uint256",
          "name": "_proposalId",
          "type": "uint256"
        },
        {
          "internalType": "bool",
          "name": "_vote",
          "type": "bool"
        },
        {
          "internalType": "string",
          "name": "_reason",
          "type": "string"
        }
      ],
      "name": "vote",
      "outputs": [],
      "stateMutability": "nonpayable",
      "type": "function"
    },
    {
      "inputs": [],
      "name": "votingDuration",
      "outputs": [
        {
          "internalType": "uint256",
          "name": "",
          "type": "uint256"
        }
      ],
      "stateMutability": "view",
      "type": "function"
    }
  ],
  "bytecode": "0x6080604052670de0b6b3a76400006001556202a300600255603c6003553480156200002957600080fd5b50604051620016093803806200160983398181016040528101906200004f919062000100565b806000806101000a81548173ffffffffffffffffffffffffffffffffffffffff021916908373ffffffffffffffffffffffffffffffffffffffff1602179055505062000132565b600080fd5b600073ffffffffffffffffffffffffffffffffffffffff82169050919050565b6000620000c8826200009b565b9050919050565b620000da81620000bb565b8114620000e657600080fd5b50565b600081519050620000fa81620000cf565b92915050565b60006020828403121562000119576200011862000096565b5b60006200012984828501620000e9565b91505092915050565b6114c780620001426000396000f3fe608060405234801561001057600080fd5b50600436106100875760003560e01c80633a832fd31161005b5780633a832fd31461011a57806349c2a1a6146101385780636cd4f6da14610154578063d3c0715b1461018457610087565b80627ed0581461008c578063013cf08b146100aa578063132002fc146100de5780631cb8437c146100fc575b600080fd5b6100946101a0565b6040516100a191906108d5565b60405180910390f35b6100c460048036038101906100bf9190610930565b6101a6565b6040516100d5959493929190610a64565b60405180910390f35b6100e6610281565b6040516100f391906108d5565b60405180910390f35b610104610287565b60405161011191906108d5565b60405180910390f35b61012261028d565b60405161012f9190610b3d565b60405180910390f35b610152600480360381019061014d9190610c8d565b6102b1565b005b61016e60048036038101906101699190610930565b610342565b60405161017b9190610cf1565b60405180910390f35b61019e60048036038101906101999190610d38565b6103f9565b005b60015481565b600481815481106101b657600080fd5b90600052602060002090600702016000915090508060000180546101d990610dd6565b80601f016020809104026020016040519081016040528092919081815260200182805461020590610dd6565b80156102525780601f1061022757610100808354040283529160200191610252565b820191906000526020600020905b81548152906001019060200180831161023557829003601f168201915b5050505050908060010154908060020154908060030154908060040160009054906101000a900460ff16905085565b60025481565b60035481565b60008054906101000a900473ffffffffffffffffffffffffffffffffffffffff1681565b600060046001816001815401808255809150500390600052602060002090600702019050818160000190816102e69190610fa9565b5060008160010181905550600081600201819055506002544261030991906110aa565b816003018190555060008160040160006101000a81548160ff02191690836002811115610339576103386109ed565b5b02179055505050565b6000600480549050821061038b576040517f08c379a00000000000000000000000000000000000000000000000000000000081526004016103829061112a565b60405180910390fd5b6000600483815481106103a1576103a061114a565b5b906000526020600020906007020190506000816002015482600101546103c791906110aa565b9050600081606484600101546103dd9190611179565b6103e791906111ea565b90506003548110159350505050919050565b6004805490508310610440576040517f08c379a00000000000000000000000000000000000000000000000000000000081526004016104379061112a565b60405180910390fd5b60015460008054906101000a900473ffffffffffffffffffffffffffffffffffffffff1673ffffffffffffffffffffffffffffffffffffffff166370a08231336040518263ffffffff1660e01b815260040161049c919061123c565b602060405180830381865afa1580156104b9573d6000803e3d6000fd5b505050506040513d601f19601f820116820180604052508101906104dd919061126c565b101561051e576040517f08c379a0000000000000000000000000000000000000000000000000000000008152600401610515906112e5565b60405180910390fd5b600483815481106105325761053161114a565b5b906000526020600020906007020160050160003373ffffffffffffffffffffffffffffffffffffffff1673ffffffffffffffffffffffffffffffffffffffff16815260200190815260200160002060009054906101000a900460ff16156105ce576040517f08c379a00000000000000000000000000000000000000000000000000000000081526004016105c590611351565b60405180910390fd5b600060028111156105e2576105e16109ed565b5b600484815481106105f6576105f561114a565b5b906000526020600020906007020160040160009054906101000a900460ff166002811115610627576106266109ed565b5b14610667576040517f08c379a000000000000000000000000000000000000000000000000000000000815260040161065e906113bd565b60405180910390fd5b6004838154811061067b5761067a61114a565b5b9060005260206000209060070201600301544211156106cf576040517f08c379a00000000000000000000000000000000000000000000000000000000081526004016106c690611429565b60405180910390fd5b811561071557600483815481106106e9576106e861114a565b5b9060005260206000209060070201600101600081548092919061070b90611449565b9190505550610751565b600483815481106107295761072861114a565b5b9060005260206000209060070201600201600081548092919061074b90611449565b91905055505b6001600484815481106107675761076661114a565b5b906000526020600020906007020160050160003373ffffffffffffffffffffffffffffffffffffffff1673ffffffffffffffffffffffffffffffffffffffff16815260200190815260200160002060006101000a81548160ff02191690831515021790555080600484815481106107e1576107e061114a565b5b906000526020600020906007020160060160003373ffffffffffffffffffffffffffffffffffffffff1673ffffffffffffffffffffffffffffffffffffffff168152602001908152602001600020908161083b9190610fa9565b50600483815481106108505761084f61114a565b5b90600052602060002090600702016003015442106108b75760016004848154811061087e5761087d61114a565b5b906000526020600020906007020160040160006101000a81548160ff021916908360028111156108b1576108b06109ed565b5b02179055505b505050565b6000819050919050565b6108cf816108bc565b82525050565b60006020820190506108ea60008301846108c6565b92915050565b6000604051905090565b600080fd5b600080fd5b61090d816108bc565b811461091857600080fd5b50565b60008135905061092a81610904565b92915050565b600060208284031215610946576109456108fa565b5b60006109548482850161091b565b91505092915050565b600081519050919050565b600082825260208201905092915050565b60005b8381101561099757808201518184015260208101905061097c565b60008484015250505050565b6000601f19601f8301169050919050565b60006109bf8261095d565b6109c98185610968565b93506109d9818560208601610979565b6109e2816109a3565b840191505092915050565b7f4e487b7100000000000000000000000000000000000000000000000000000000600052602160045260246000fd5b60038110610a2d57610a2c6109ed565b5b50565b6000819050610a3e82610a1c565b919050565b6000610a4e82610a30565b9050919050565b610a5e81610a43565b82525050565b600060a0820190508181036000830152610a7e81886109b4565b9050610a8d60208301876108c6565b610a9a60408301866108c6565b610aa760608301856108c6565b610ab46080830184610a55565b9695505050505050565b600073ffffffffffffffffffffffffffffffffffffffff82169050919050565b6000819050919050565b6000610b03610afe610af984610abe565b610ade565b610abe565b9050919050565b6000610b1582610ae8565b9050919050565b6000610b2782610b0a565b9050919050565b610b3781610b1c565b82525050565b6000602082019050610b526000830184610b2e565b92915050565b600080fd5b600080fd5b7f4e487b7100000000000000000000000000000000000000000000000000000000600052604160045260246000fd5b610b9a826109a3565b810181811067ffffffffffffffff82111715610bb957610bb8610b62565b5b80604052505050565b6000610bcc6108f0565b9050610bd88282610b91565b919050565b600067ffffffffffffffff821115610bf857610bf7610b62565b5b610c01826109a3565b9050602081019050919050565b82818337600083830152505050565b6000610c30610c2b84610bdd565b610bc2565b905082815260208101848484011115610c4c57610c4b610b5d565b5b610c57848285610c0e565b509392505050565b600082601f830112610c7457610c73610b58565b5b8135610c84848260208601610c1d565b91505092915050565b600060208284031215610ca357610ca26108fa565b5b600082013567ffffffffffffffff811115610cc157610cc06108ff565b5b610ccd84828501610c5f565b91505092915050565b60008115159050919050565b610ceb81610cd6565b82525050565b6000602082019050610d066000830184610ce2565b92915050565b610d1581610cd6565b8114610d2057600080fd5b50565b600081359050610d3281610d0c565b92915050565b600080600060608486031215610d5157610d506108fa565b5b6000610d5f8682870161091b565b9350506020610d7086828701610d23565b925050604084013567ffffffffffffffff811115610d9157610d906108ff565b5b610d9d86828701610c5f565b9150509250925092565b7f4e487b7100000000000000000000000000000000000000000000000000000000600052602260045260246000fd5b60006002820490506001821680610dee57607f821691505b602082108103610e0157610e00610da7565b5b50919050565b60008190508160005260206000209050919050565b60006020601f8301049050919050565b600082821b905092915050565b600060088302610e697fffffffffffffffffffffffffffffffffffffffffffffffffffffffffffffffff82610e2c565b610e738683610e2c565b95508019841693508086168417925050509392505050565b6000610ea6610ea1610e9c846108bc565b610ade565b6108bc565b9050919050565b6000819050919050565b610ec083610e8b565b610ed4610ecc82610ead565b848454610e39565b825550505050565b600090565b610ee9610edc565b610ef4818484610eb7565b505050565b5b81811015610f1857610f0d600082610ee1565b600181019050610efa565b5050565b601f821115610f5d57610f2e81610e07565b610f3784610e1c565b81016020851015610f46578190505b610f5a610f5285610e1c565b830182610ef9565b50505b505050565b600082821c905092915050565b6000610f8060001984600802610f62565b1980831691505092915050565b6000610f998383610f6f565b9150826002028217905092915050565b610fb28261095d565b67ffffffffffffffff811115610fcb57610fca610b62565b5b610fd58254610dd6565b610fe0828285610f1c565b600060209050601f8311600181146110135760008415611001578287015190505b61100b8582610f8d565b865550611073565b601f19841661102186610e07565b60005b8281101561104957848901518255600182019150602085019450602081019050611024565b868310156110665784890151611062601f891682610f6f565b8355505b6001600288020188555050505b505050505050565b7f4e487b7100000000000000000000000000000000000000000000000000000000600052601160045260246000fd5b60006110b5826108bc565b91506110c0836108bc565b92508282019050808211156110d8576110d761107b565b5b92915050565b7f496e76616c69642070726f706f73616c20494400000000000000000000000000600082015250565b6000611114601383610968565b915061111f826110de565b602082019050919050565b6000602082019050818103600083015261114381611107565b9050919050565b7f4e487b7100000000000000000000000000000000000000000000000000000000600052603260045260246000fd5b6000611184826108bc565b915061118f836108bc565b925082820261119d816108bc565b915082820484148315176111b4576111b361107b565b5b5092915050565b7f4e487b7100000000000000000000000000000000000000000000000000000000600052601260045260246000fd5b60006111f5826108bc565b9150611200836108bc565b9250826112105761120f6111bb565b5b828204905092915050565b600061122682610abe565b9050919050565b6112368161121b565b82525050565b6000602082019050611251600083018461122d565b92915050565b60008151905061126681610904565b92915050565b600060208284031215611282576112816108fa565b5b600061129084828501611257565b91505092915050565b7f4e6f7420656e6f756768204a6f7368636f696e20746f20766f74650000000000600082015250565b60006112cf601b83610968565b91506112da82611299565b602082019050919050565b600060208201905081810360008301526112fe816112c2565b9050919050565b7f416c726561647920766f746564206f6e20746869732070726f706f73616c0000600082015250565b600061133b601e83610968565b915061134682611305565b602082019050919050565b6000602082019050818103600083015261136a8161132e565b9050919050565b7f50726f706f73616c20766f74696e6720697320636c6f73656400000000000000600082015250565b60006113a7601983610968565b91506113b282611371565b602082019050919050565b600060208201905081810360008301526113d68161139a565b9050919050565b7f566f74696e6720706572696f642068617320656e646564000000000000000000600082015250565b6000611413601783610968565b915061141e826113dd565b602082019050919050565b6000602082019050818103600083015261144281611406565b9050919050565b6000611454826108bc565b91507fffffffffffffffffffffffffffffffffffffffffffffffffffffffffffffffff82036114865761148561107b565b5b60018201905091905056fea2646970667358221220030bf2ac20f5443a4c9866e0833a81fca1a402e27a0d0b80ccd20912046da6b264736f6c63430008120033",
  "linkReferences": {},
  "deployedLinkReferences": {}
}